S01100006C61626F345F4144432E737265631A
S11300000C9434000C9446000C9446000C94460066
S11300100C9446000C9446000C9446000C94460044
S11300200C9446000C9446000C9446000C94460034
S11300300C9446000C9446000C9446000C94460024
S11300400C9446000C9446000C9446000C94460014
S11300500C9446000C94BE000C9446000C9446008C
S11300600C94EB000C94460011241FBECFEFD8E093
S1130070DEBFCDBF21E0A0E0B1E001C01D92A230FF
S1130080B207E1F70E94A2000C9428010C9400002E
S1130090ECE7F0E090819064908390819F77908367
S11300A0908190629083EAE7F0E090819868908371
S11300B0823021F48081816080830895843031F41A
S11300C0EAE7F0E08081826080830895883031F42B
S11300D0EAE7F0E08081836080830895803131F421
S11300E0EAE7F0E08081846080830895803231F40F
S11300F0EAE7F0E08081856080830895803831F4F8
S1130100EAE7F0E08081876080830895EAE7F0E021
S11301108081876080830895ECE7F0E08081807FB0
S113012080830895EAE7F0E0808180648083089505
S113013097B19A7E97B9880F8093BA0085E480932B
S1130140BC000895F89487B18F7C87B988B1806327
S113015088B93898259A80E80E9448000E948C004B
S11301600E94920080E30E9498007894809100019C
S11301708035F1F72D9A10920001F8CF1F920F925B
S11301800FB60F9211242F933F934F935F936F9366
S11301907F938F939F93AF93BF93EF93FF9380913C
S11301A07900809301010E949200EAE7F0E08081E7
S11301B080618083FF91EF91BF91AF919F918F9167
S11301C07F916F915F914F913F912F910F900FBE4F
S11301D00F901F9018951F920F920FB60F92112433
S11301E08F93EF93FF938091B900887F803899F0C3
S11301F028F4803651F0803741F01DC0883A99F0D8
S1130200883B89F08039B9F406C0ECEBF0E08081DA
S1130210856C808315C08091BB008093000185ECC0
S11302208093BC000DC0809101018093BB0085ECDC
S11302308093BC0005C0ECEBF0E08081856D808389
S1130240FF91EF918F910F900FBE0F901F90189513
S1070250F894FFCF4C
S9030000FC
