S01200004C6162334D61737465722E7372656364
S11300000C943B000C9458000C9458000C94580029
S11300100C9458000C9458000C9458000C945800FC
S11300200C9458000C9458000C9458000C945800EC
S11300300C9458000C9458000C9458000C945800DC
S11300400C9458000C9458000C94DB020C94580047
S11300500C9458000C9458000C9458000C945800BC
S11300600C9458000C945800A400AB00B200BC00DF
S1130070C600D000DA0011241FBECFEFD8E0DEBFE7
S1130080CDBF11E0A0E0B1E0E0E5FBE002C00590E7
S11300900D92A033B107D9F721E0A0E3B1E001C08C
S11300A01D92A535B207E1F70E94E8010C94A6055C
S11300B00C9400008AB18E7F8AB98AB182608AB9B1
S11300C01092C000E1ECF0E01082808188698083A6
S11300D0E2ECF0E0108286E0808387E690E0909383
S11300E0C5008093C40008959091C00095FFFCCF93
S11300F08093C6000895AC0120E007C09091C00031
S113010095FFFCCF3093C6002F5FFA01E20FF11D7B
S113011030813111F3CF0895E82F84FF52C084B1A8
S11301208C6284B984B18F7E84B98CB580618CBDB6
S1130130E7708E2F90E08730910508F04BC0FC01EA
S1130140EC5CFF4F0C9445058CB58C7F8CBD8DB554
S113015081608DBD3FC08CB58C7F8CBD8DB58E7F8D
S11301608DBD38C08CB581608CBD8CB58D7F8CBD48
S11301708DB581608DBD2EC08CB581608CBD8CB574
S11301808D7F8CBD8DB58E7F8DBD24C08CB58E7F4B
S11301908CBD8CB582608CBD8DB581608DBD1AC05F
S11301A08CB58E7F8CBD8CB582608CBD8DB58E7FF9
S11301B08DBD10C08CB583608CBD8DB58E7F8DBD1B
S11301C009C084B1806184B984B1837D84B98CB55C
S11301D08F7E8CBD8CB5462B242B282B20642CBD04
S11301E008958EBD08950DB407FEFDCF8EB5089514
S11301F00E945A008AB18C6F8AB984B1836084B931
S113020084B1846084B985B1846085B920E040E01C
S113021060E083E50E948C000895882324F495B15E
S1130220926095B903C095B19D7F95B986FF04C0CE
S113023095B1916095B903C095B19E7F95B985FF3D
S113024004C09BB190689BB903C09BB19F779BB9D5
S113025084FF04C09BB190649BB903C09BB19F7B96
S11302609BB983FF04C09BB190629BB903C09BB14F
S11302709F7D9BB982FF04C09BB190619BB903C071
S11302809BB19F7E9BB981FF04C09BB198609BB9D1
S113029003C09BB1977F9BB980FF04C08BB184607E
S11302A08BB908958BB18B7F8BB908954F925F9270
S11302B06F927F92AF92BF92CF92DF92EF92FF92B2
S11302C00F931F93CF93DF9300D000D0CDB7DEB749
S11302D02B013C017A0159010E94140469837A8339
S11302E08B839C8329813A81B901330F880B990B45
S11302F00E944C049B01AC01C301B2010E9435036E
S11303002B013C014AE0B70189819A810E94690569
S11303101A82198205C089819A8101969A838983F8
S1130320E981FA81EE0DFF1D80818111F4CF2981CD
S11303303A812F5F3F4F3A8329838EE2808300E026
S113034010E02AC020E030E040E251E4C301B201F1
S11303500E94D8042B013C010E941404C980DA8055
S11303603FEFC31AD30AE981FA81EE0DFF1D20E3A2
S1130370260F2083072E000C880B990B0E944C0437
S11303809B01AC01C301B2010E9435032B013C0166
S11303900F5F1F4FDA82C9820A151B059CF229815F
S11303A03A812E0D3F1DF90110820F900F900F908E
S11303B00F90DF91CF911F910F91FF90EF90DF90FD
S11303C0CF90BF90AF907F906F905F904F900895C3
S11303D00E94F800789480E50E94F10085B18B7F3B
S11303E085B90E94F30080933B01682F70E080E0A0
S11303F090E00E944C0420E030E040EA50E40E9487
S1130400D80420E030E04FE753E40E94A203609355
S1130410360170933701809338019093390122E0BB
S113042030E041E451E00E94560180E091E00E94F6
S11304307B008AE00E9474008DE00E94740081E4D5
S113044091E00E947B008AE00E9474008DE00E948B
S1130450740085B1846085B92FEF84E39CE021505A
S113046080409040E1F700C0000083E40E94F10066
S113047085B18B7F85B90E94F30080933A01682F80
S113048070E080E090E00E944C0420E030E040EA1C
S113049050E40E94D80420E030E04FE753E40E9487
S11304A0A2036093320170933301809334019093DB
S11304B0350122E030E041E451E00E9456018DE034
S11304C091E00E947B008AE00E9474008DE00E940B
S11304D0740081E491E00E947B008AE00E94740031
S11304E08DE00E94740085B1846085B92FEF84E3A8
S11304F09CE0215080409040E1F700C0000085B1AD
S11305008B7F85B98CE40E94F1000E94F3008093F4
S11305103B01682F70E080E090E00E944C0420E0F2
S113052030E040EA50E40E94D80420E030E04FE795
S113053053E40E94A20360933601709337018093C1
S11305403801909339012FEF84E39CE021508040DF
S11305509040E1F700C00000809130010E94F1005A
S11305600E94F30080933A01682F70E080E090E0ED
S11305700E944C0420E030E040EA50E40E94D80499
S113058020E030E04FE753E40E94A203609332017D
S113059070933301809334019093350185B1846065
S11305A085B92FEF84E39CE0215080409040E1F72F
S11305B000C0000010CF1F920F920FB60F921124AB
S11305C02F933F934F935F936F937F938F939F9357
S11305D0AF93BF93EF93FF93E6ECF0E080818083C9
S11305E08D3011F08A3021F5E0913101F0E0E45CC6
S11305F0FE4F10828CE391E00E944B058093300102
S11306000E940D018AE191E00E947B008CE391E05D
S11306100E947B008DE291E00E947B0010923101E8
S113062085E0ECE3F1E0DF011D928A95E9F70CC067
S1130630E0913101E43040F491E09E0F9093310158
S1130640F0E0E45CFE4F8083FF91EF91BF91AF91A6
S11306509F918F917F916F915F914F913F912F91D6
S11306600F900FBE0F901F9018955058BB27AA27C4
S11306700E944D030C949E040E94900438F00E9442
S1130680970420F039F49F3F19F426F40C948D0458
S11306900EF4E095E7FB0C948704E92F0E94AF0465
S11306A058F3BA17620773078407950720F079F4A3
S11306B0A6F50C94D1040EF4E0950B2EBA2FA02DC0
S11306C00B01B90190010C01CA01A0011124FF27FB
S11306D0591B99F0593F50F4503E68F11A16F040F6
S11306E0A22F232F342F4427585FF3CF46953795F5
S11306F02795A795F0405395C9F77EF41F16BA0BBA
S1130700620B730B840BBAF09150A1F0FF0FBB1F67
S1130710661F771F881FC2F70EC0BA0F621F731FB0
S1130720841F48F4879577956795B795F7959E3F0D
S113073008F0B0CF9395880F08F09927EE0F97959E
S1130740879508950E94B6030C949E040E94970412
S113075058F00E94900440F029F45F3F29F00C9473
S1130760870451110C94D2040C948D040E94AF049C
S113077068F39923B1F3552391F3951B550BBB27CC
S1130780AA2762177307840738F09F5F5F4F220F11
S1130790331F441FAA1FA9F335D00E2E3AF0E0E808
S11307A032D091505040E695001CCAF72BD0FE2F52
S11307B029D0660F771F881FBB1F261737074807E6
S11307C0AB07B0E809F0BB0B802DBF01FF2793589E
S11307D05F4F3AF09E3F510578F00C9487040C94D7
S11307E0D2045F3FE4F3983ED4F3869577956795FA
S11307F0B795F7959F5FC9F7880F911D96958795D3
S113080097F90895E1E0660F771F881FBB1F6217F1
S113081073078407BA0720F0621B730B840BBA0BAF
S1130820EE1F88F7E09508950E941B046894B111A7
S11308300C94D20408950E94B70488F09F5798F04E
S1130840B92F9927B751B0F0E1F0660F771F881FD1
S1130850991F1AF0BA95C9F714C0B13091F00E94EB
S1130860D104B1E008950C94D104672F782F882720
S1130870B85F39F0B93FCCF3869577956795B39512
S1130880D9F73EF490958095709561957F4F8F4F81
S11308909F4F0895E89409C097FB3EF49095809586
S11308A0709561957F4F8F4F9F4F9923A9F0F92F32
S11308B096E9BB279395F695879577956795B795B0
S11308C0F111F8CFFAF4BB0F11F460FF1BC06F5F96
S11308D07F4F8F4F9F4F16C0882311F096E911C0A8
S11308E0772321F09EE8872F762F05C0662371F0C9
S11308F096E8862F70E060E02AF09A95660F771FDD
S1130900881FDAF7880F9695879597F9089597F9D0
S11309109F6780E870E060E008959FEF80EC0895A1
S113092000240A94161617061806090608950024CA
S11309300A9412161306140605060895092E039444
S1130940000C11F4882352F0BB0F40F4BF2B11F4B8
S113095060FF04C06F5F7F4F8F4F9F4F089557FD17
S11309609058440F551F59F05F3F71F04795880F19
S113097097FB991F61F09F3F79F0879508951216B0
S113098013061406551FF2CF4695F1DF08C016165C
S113099017061806991FF1CF86957105610508940D
S11309A00895E894BB2766277727CB0197F9089524
S11309B00E94EB040C949E040E94900438F00E9460
S11309C0970420F0952311F00C9487040C948D0463
S11309D011240C94D2040E94AF0470F3959FC1F3C8
S11309E0950F50E0551F629FF001729FBB27F00DD9
S11309F0B11D639FAA27F00DB11DAA1F649F66272E
S1130A00B00DA11D661F829F2227B00DA11D621F7C
S1130A10739FB00DA11D621F839FA00D611D221F36
S1130A20749F3327A00D611D231F849F600D211D1A
S1130A30822F762F6A2F11249F5750409AF0F1F09D
S1130A4088234AF0EE0FFF1FBB1F661F771F881F06
S1130A5091505040A9F79E3F510580F00C948704B3
S1130A600C94D2045F3FE4F3983ED4F386957795D3
S1130A706795B795F795E7959F5FC1F7FE2B880FAC
S1130A80911D9695879597F90895EE0FFF1F059090
S1130A90F491E02D0994FC0188279927E894219189
S1130AA02032E9F3293010F02E30C8F32B3241F014
S1130AB02D3239F4689404C00E947405820F911D8C
S1130AC0219120532A30C0F31EF4909581959F4FB5
S1130AD00895BB274A3031F4992322F4BDE290955E
S1130AE081959F4F0C947D057AE0979F902D879F69
S1130AF0802D910D11240895BB27FB015527AA27AA
S1130B00880F991FAA1FA41710F0A41B8395505196
S1130B10B9F7A05DAA3308F0A95DA193009779F70E
S1130B20B111B1931192CB010C949605DC01FC0137
S1130B30672F71917723E1F7329704C07C916D930D
S1130B4070836291AE17BF07C8F30895F894FFCF7E
S1130B5056616C6F7220506F7465313A0056616C47
S1130B606F7220506F7465323A000A4E756D65726B
S1130B706F20726563696269646F3A20000A00003D
S9030000FC
