:100000000C9434000C9451000C9451000C94510049
:100010000C9451000C9451000C9451000C9451001C
:100020000C9451000C9451000C9451000C9451000C
:100030000C9451000C9451000C9451000C945100FC
:100040000C9451000C9451000C948D030C945100AD
:100050000C9451000C9474030C9451000C945100B6
:100060000C9451000C94510011241FBECFEFD8E026
:10007000DEBFCDBF11E0A0E0B1E0EAEFFBE002C0DF
:1000800005900D92A035B107D9F721E0A0E5B1E0C8
:1000900001C01D92A137B207E1F70E94A6020C949D
:1000A000FB050C940000ECE7F0E010829081906476
:1000B000908390819F779083EAE7F0E010829081AF
:1000C00090689083908198609083813031F4ECE760
:1000D000F0E080818062808305C0ECE7F0E0808101
:1000E0008F7D8083403141F140F4443099F04830B5
:1000F000D1F0423009F041C007C0403479F14038B6
:10010000B1F14032D1F521C0EAE7F0E08081887F8B
:10011000808338C0EAE7F0E080818260808380815C
:100120008A7F80832FC0EAE7F0E08081836080834C
:1001300080818B7F808326C0EAE7F0E08081846045
:10014000808380818C7F80831DC0EAE7F0E080811E
:100150008560808380818D7F808314C0EAE7F0E032
:1001600080818660808380818E7F80830BC0EAE7F8
:10017000F0E080818760808305C0EAE7F0E080815D
:10018000887F80836630B8F56230C1F028F466233A
:1001900049F0613069F02AC06430E1F0A8F06530C0
:1001A000F9F024C0EEE7F0E080818160808308955B
:1001B000EEE7F0E08081826080830895EEE7F0E072
:1001C0008081846080830895EEE7F0E0808188601C
:1001D00080830895EEE7F0E0808180618083089558
:1001E000EEE7F0E08081806280830895EEE7F0E042
:1001F00080818E7F80830895ECE7F0E09081907F8E
:10020000892B8083EAE7F0E080818064808380919D
:100210007A0086FDFCCF8091780090917900089556
:100220008AB18E7F8AB98AB182608AB91092C00081
:10023000E1ECF0E01082808188698083E2ECF0E0FC
:10024000108286E0808387E690E09093C5008093DB
:10025000C40008959091C00095FFFCCF8093C60024
:100260000895AC0120E007C09091C00095FFFCCF3D
:100270003093C6002F5FFA01E20FF11D308131117A
:10028000F3CF089580FF04C09BB194609BB903C075
:100290009BB19B7F9BB981FF04C09BB198609BB9C8
:1002A00003C09BB1977F9BB982FF04C09BB1906153
:1002B0009BB903C09BB19F7E9BB983FF04C09BB1D8
:1002C00090629BB903C09BB19F7D9BB984FF04C022
:1002D0009BB190649BB903C09BB19F7B9BB985FF89
:1002E00004C09BB190689BB903C09BB19F779BB939
:1002F00086FF04C095B1916095B903C095B19E7F0A
:1003000095B9882324F485B1826085B9089585B1B3
:100310008D7F85B9089595B1977F95B90E94420167
:1003200085B1846085B98FE79EE30197F1F700C03E
:10033000000085B18B7F85B9089595B1986095B916
:100340000E94420185B1846085B98FE79EE30197E1
:10035000F1F700C0000085B18B7F85B908958FEF5C
:100360008AB98FE084B91BB815B888E30E948B0165
:100370008FE891E00197F1F700C000008CE00E9447
:100380008B018FE891E00197F1F700C0000081E058
:100390000E948B018FE891E00197F1F700C0000007
:1003A00086E00E948B018FE891E00197F1F700C091
:1003B00000000895613021F481580E948B01089556
:1003C000623019F481540E948B010895CF93DF931A
:1003D000EC0103C021960E949D0188818111FACF12
:1003E000DF91CF9108950E94AF0140E867E081E07E
:1003F0000E9453002FEF81EE94E021508040904006
:10040000E1F700C0000040E865E081E00E94530091
:100410002FEF81EE94E0215080409040E1F700C042
:1004200000000E94100108954F925F926F927F9298
:10043000AF92BF92CF92DF92EF92FF920F931F93F2
:10044000CF93DF9300D000D0CDB7DEB72B013C01B6
:100450007A0159010E94950469837A838B839C8376
:1004600029813A81B901330F880B990B0E94CD0481
:100470009B01AC01C301B2010E94B6032B013C01F8
:100480004AE0B70189819A810E94C6051A821982C1
:1004900005C089819A8101969A838983E981FA81CD
:1004A000EE0DFF1D80818111F4CF29813A812F5FEC
:1004B0003F4F3A8329838EE2808300E010E02AC018
:1004C00020E030E040E251E4C301B2010E9459054E
:1004D0002B013C010E949504C980DA803FEFC31ACA
:1004E000D30AE981FA81EE0DFF1D20E3260F208358
:1004F000072E000C880B990B0E94CD049B01AC01C8
:10050000C301B2010E94B6032B013C010F5F1F4FD4
:10051000DA82C9820A151B059CF229813A812E0DC7
:100520003F1DF90110820F900F900F900F90DF91F7
:10053000CF911F910F91FF90EF90DF90CF90BF90E0
:10054000AF907F906F905F904F9008950E94F3015D
:1005500061E081E00E94DA0180E091E00E94E60122
:1005600062E081E00E94DA018FE091E00E94E60102
:1005700078948AE00E942A018DE00E942A018CE191
:1005800091E00E9431018AE00E942A018DE00E94E0
:100590002A0185E391E00E9431018AE00E942A014C
:1005A0008DE00E942A0185E090E00E94FC006091AD
:1005B0005C0160935B0170E080E090E00E94CD04FC
:1005C00020E030E040EA50E40E94590520E030E0AD
:1005D0004FE753E40E942304609356017093570140
:1005E000809358019093590122E030E04DE551E0AD
:1005F0000E94140262E081E00E94DA018DE591E040
:100600000E94E6012FEF80E792E021508040904069
:10061000E1F700C0000087E090E00E94FC006091DC
:100620005C0160935A0170E080E090E00E94CD048C
:1006300020E030E040EA50E40E94590520E030E03C
:100640004FE753E40E9423046093520170935301D7
:10065000809354019093550122E030E04DE551E044
:100660000E94140262E087E00E94DA018DE591E0C9
:100670000E94E6012FEF80E792E0215080409040F9
:10068000E1F700C00000809150014AE06DE571E0A3
:1006900090E00E94C605809150018A3088F462E0A3
:1006A0008DE00E94DA018EE491E00E94E60162E0B2
:1006B0008EE00E94DA018DE591E00E94E6010AC019
:1006C0008A3040F062E08DE00E94DA018DE591E031
:1006D0000E94E6012FEF80E792E021508040904099
:1006E000E1F700C000005FCF1F920F920FB60F928C
:1006F00011248F93EF93FF938091790080935C0195
:10070000EAE7F0E0808180618083FF91EF918F9133
:100710000F900FBE0F901F9018951F920F920FB65B
:100720000F9211248F939F939091C6009093510143
:100730008091C00085FFFCCF9093C600809151014D
:100740008B3231F4809150018F5F8093500107C04C
:100750008D3229F4809150018150809350019F91F6
:100760008F910F900FBE0F901F9018955058BB2778
:10077000AA270E94CE030C941F050E94110538F091
:100780000E94180520F039F49F3F19F426F40C94C8
:100790000E050EF4E095E7FB0C940805E92F0E9486
:1007A000300558F3BA17620773078407950720F0DE
:1007B00079F4A6F50C9452050EF4E0950B2EBA2FA1
:1007C000A02D0B01B90190010C01CA01A001112457
:1007D000FF27591B99F0593F50F4503E68F11A1603
:1007E000F040A22F232F342F4427585FF3CF469594
:1007F00037952795A795F0405395C9F77EF41F16B6
:10080000BA0B620B730B840BBAF09150A1F0FF0F7F
:10081000BB1F661F771F881FC2F70EC0BA0F621F6B
:10082000731F841F48F4879577956795B795F7955B
:100830009E3F08F0B0CF9395880F08F09927EE0FF0
:100840009795879508950E9437040C941F050E9480
:10085000180558F00E94110540F029F45F3F29F077
:100860000C94080551110C9453050C940E050E942C
:10087000300568F39923B1F3552391F3951B550B7C
:10088000BB27AA2762177307840738F09F5F5F4F63
:10089000220F331F441FAA1FA9F335D00E2E3AF0A2
:1008A000E0E832D091505040E695001CCAF72BD0BA
:1008B000FE2F29D0660F771F881FBB1F261737070B
:1008C0004807AB07B0E809F0BB0B802DBF01FF273D
:1008D00093585F4F3AF09E3F510578F00C9408050D
:1008E0000C9453055F3FE4F3983ED4F386957795D7
:1008F0006795B795F7959F5FC9F7880F911D9695F6
:10090000879597F90895E1E0660F771F881FBB1F51
:10091000621773078407BA0720F0621B730B840BFE
:10092000BA0BEE1F88F7E09508950E949C04689426
:10093000B1110C94530508950E94380588F09F5713
:1009400098F0B92F9927B751B0F0E1F0660F771FF3
:10095000881F991F1AF0BA95C9F714C0B13091F0E9
:100960000E945205B1E008950C945205672F782F2C
:100970008827B85F39F0B93FCCF3869577956795AE
:10098000B395D9F73EF490958095709561957F4F1A
:100990008F4F9F4F0895E89409C097FB3EF49095C0
:1009A0008095709561957F4F8F4F9F4F9923A9F048
:1009B000F92F96E9BB279395F695879577956795D7
:1009C000B795F111F8CFFAF4BB0F11F460FF1BC01B
:1009D0006F5F7F4F8F4F9F4F16C0882311F096E9AE
:1009E00011C0772321F09EE8872F762F05C066235C
:1009F00071F096E8862F70E060E02AF09A95660F15
:100A0000771F881FDAF7880F9695879597F90895CD
:100A100097F99F6780E870E060E008959FEF80ECB1
:100A2000089500240A941616170618060906089554
:100A300000240A9412161306140605060895092EBA
:100A40000394000C11F4882352F0BB0F40F4BF2B29
:100A500011F460FF04C06F5F7F4F8F4F9F4F089569
:100A600057FD9058440F551F59F05F3F71F047955F
:100A7000880F97FB991F61F09F3F79F08795089544
:100A8000121613061406551FF2CF4695F1DF08C063
:100A9000161617061806991FF1CF86957105610580
:100AA00008940895E894BB2766277727CB0197F928
:100AB00008950E946C050C941F050E94110538F0E2
:100AC0000E94180520F0952311F00C9408050C9451
:100AD0000E0511240C9453050E94300570F3959F68
:100AE000C1F3950F50E0551F629FF001729FBB2725
:100AF000F00DB11D639FAA27F00DB11DAA1F649FC1
:100B00006627B00DA11D661F829F2227B00DA11D73
:100B1000621F739FB00DA11D621F839FA00D611DF9
:100B2000221F749F3327A00D611D231F849F600D1A
:100B3000211D822F762F6A2F11249F5750409AF043
:100B4000F1F088234AF0EE0FFF1FBB1F661F771FCF
:100B5000881F91505040A9F79E3F510580F00C949A
:100B600008050C9453055F3FE4F3983ED4F3869553
:100B700077956795B795F795E7959F5FC1F7FE2B3A
:100B8000880F911D9695879597F90895BB274A3050
:100B900031F4992322F4BDE2909581959F4F0C94F6
:100BA000D205BB27FB015527AA27880F991FAA1F2B
:100BB000A41710F0A41B83955051B9F7A05DAA3378
:100BC00008F0A95DA193009779F7B111B193119243
:100BD000CB010C94EB05DC01FC01672F71917723AD
:100BE000E1F7329704C07C916D9370836291AE17E8
:0A0BF000BF07C8F30895F894FFCF83
:100BFA002053313A20202053323A20205333002008
:100C0A00202020562020202020562000282B292072
:100C1A00696E6372656D656E74617220636F6E745E
:100C2A0061646F7200282D292064656372656D65A1
:100C3A006E74617220636F6E7461646F720030004B
:00000001FF
