:100000000C943E000C9450000C9450000C94500042
:100010000C949B000C9450000C9450000C945000D5
:100020000C9450000C9450000C9450000C94500010
:100030000C9450000C9450000C9450000C94500000
:100040000C9450000C9450000C9450000C945000F0
:100050000C9450000C9450000C9450000C945000E0
:100060000C9450000C9450006100640067006A001A
:100070006D0070007300760079007C0011241FBEB3
:10008000CFEFD8E0DEBFCDBF21E0A0E0B1E001C0FE
:100090001D92A830B207E1F70E944A010C94C801F2
:1000A0000C9400008FEF8AB91BB81092C10008951C
:1000B00090E08A30910518F5FC01EC5CFF4F0C9440
:1000C000C2018FE38BB9089586E08BB908958BE563
:1000D0008BB908958FE48BB9089586E68BB908959E
:1000E0008DE68BB908958DE78BB9089587E08BB9BC
:1000F00008958FE78BB908958FE68BB908951BB8E3
:100100000895109206011092070187B1887F87B980
:1001100087B1886787B984B18F6084B90E94520023
:10012000E8E6F0E0808182608083ECE6F0E08081A8
:100130008760808308951F920F920FB60F9211244B
:100140008F9386B1843081F481E08093070110920F
:100150000501109204011092030110920201109205
:100160000101109200012BC086B1823051F48091C0
:100170000601813031F4809104018F5F8093040186
:100180001EC086B1813051F480910601813031F476
:10019000809105018F5F8093050111C086B1833086
:1001A00071F480910601813051F4809105018F5FD7
:1001B00080930501809104018F5F809304018F91EA
:1001C0000F900FBE0F901F901895823091F028F479
:1001D000882341F0813049F018C0833071F08430B9
:1001E00081F013C010920301089581E08093030110
:1001F000089582E080930301089584E080930301D1
:10020000089581E0809301010895109203010895FB
:10021000823091F028F4882341F0813049F018C0F1
:10022000833071F0843081F013C010920201089580
:1002300081E080930201089582E080930201089595
:1002400084E080930201089581E080930001089585
:100250001092020108958FEF9CE70197F1F700C01B
:1002600000008091030185B988B1886088B988B1A0
:100270008F7E88B98FEF9CE70197F1F700C00000EF
:100280008091020185B988B1806188B988B1877F82
:1002900088B908950E948100789480910701813087
:1002A00009F048C01092070185E00E9458002FEF26
:1002B00083ED90E3215080409040E1F700C00000C2
:1002C00084E00E9458002FEF83ED90E3215080409E
:1002D0009040E1F700C0000083E00E9458002FEF3B
:1002E00083ED90E3215080409040E1F700C0000092
:1002F00082E00E9458002FEF83ED90E32150804070
:100300009040E1F700C0000081E00E9458002FEF0C
:1003100083ED90E3215080409040E1F700C0000061
:1003200080E00E945800109205011092040181E0C3
:100330008093060180910101813059F410920601E9
:100340008FE0809303011092040181E00E94580025
:100350000EC080910001813051F4109206018FE0AF
:10036000809302011092050182E00E945800809162
:1003700005010E94E500809104010E9408010E948D
:100380002B018BCFEE0FFF1F0590F491E02D099408
:04039000F894FFCF0F
:00000001FF
