:100000000C9434000C9451000C9451000C94510049
:100010000C9451000C9451000C9451000C9451001C
:100020000C9451000C9451000C9451000C9451000C
:100030000C9451000C9451000C9451000C945100FC
:100040000C9451000C9451000C9451000C945100EC
:100050000C9451000C9451000C9451000C945100DC
:100060000C9451000C94510011241FBECFEFD8E026
:10007000DEBFCDBF11E0A0E0B1E0E4EDFBE002C0E7
:1000800005900D92A631B107D9F721E0A6E1B1E0C4
:1000900001C01D92A433B207E1F70E943C020C9408
:1000A000E8050C9400008AB18E7F8AB98AB182601B
:1000B0008AB91092C000E1ECF0E01082808188697A
:1000C0008083E2ECF0E0108286E0808387E690E0B7
:1000D0009093C5008093C400089580FF04C09BB135
:1000E00094609BB903C09BB19B7F9BB981FF04C007
:1000F0009BB198609BB903C09BB1977F9BB982FF6E
:1001000004C09BB190619BB903C09BB19F7E9BB91A
:1001100083FF04C09BB190629BB903C09BB19F7DDC
:100120009BB984FF04C09BB190649BB903C09BB191
:100130009F7B9BB985FF04C09BB190689BB903C0AE
:100140009BB19F779BB986FF04C095B1916095B92B
:1001500003C095B19E7F95B9882324F485B1826050
:1001600085B9089585B18D7F85B9089595B1977F3B
:1001700095B90E946D0085B1846085B98FE79EE3D3
:100180000197F1F700C0000085B18B7F85B9089514
:1001900095B1986095B90E946D0085B1846085B96C
:1001A0008FE79EE30197F1F700C0000085B18B7FD8
:1001B00085B908958FEF8AB98FE084B91BB815B857
:1001C00088E30E94B6008FE891E00197F1F700C044
:1001D00000008CE00E94B6008FE891E00197F1F7F3
:1001E00000C0000081E00E94B6008FE891E0019716
:1001F000F1F700C0000086E00E94B6008FE891E0B1
:100200000197F1F700C000000895613021F4815892
:100210000E94B6000895623019F481540E94B6001D
:100220000895CF93DF93EC0103C021960E94C8008C
:1002300088818111FACFDF91CF9108954F925F921B
:100240006F927F92AF92BF92CF92DF92EF92FF9226
:100250000F931F93CF93DF9300D000D0CDB7DEB7BD
:100260002B013C017A0159010E94600469837A8361
:100270008B839C8329813A81B901330F880B990BB9
:100280000E9498049B01AC01C301B2010E9481034A
:100290002B013C014AE0B70189819A810E94B30594
:1002A0001A82198205C089819A8101969A8389836D
:1002B000E981FA81EE0DFF1D80818111F4CF298142
:1002C0003A812F5F3F4F3A8329838EE2808300E09B
:1002D00010E02AC020E030E040E251E4C301B20166
:1002E0000E9424052B013C010E946004C980DA8031
:1002F0003FEFC31AD30AE981FA81EE0DFF1D20E317
:10030000260F2083072E000C880B990B0E9498045F
:100310009B01AC01C301B2010E9481032B013C018E
:100320000F5F1F4FDA82C9820A151B059CF22981D3
:100330003A812E0D3F1DF90110820F900F900F9002
:100340000F90DF91CF911F910F91FF90EF90DF9071
:10035000CF90BF90AF907F906F905F904F90089537
:100360000F931F93CF938B019C01C42F87B18F7C78
:1003700087B9443079F018F4413031F023C040316E
:1003800091F04034C9F01EC0E9EBF0E080818C7F31
:1003900080831EC0E9EBF0E080818D7F80838081C7
:1003A0008160808315C0E9EBF0E080818E7F8083DF
:1003B0008081826080830CC0E9EBF0E08081836003
:1003C000808306C0E9EBF0E080818C7F8083C1E010
:1003D00060E074E284EF90E0A90198010E94910529
:1003E000CA01B90160517109810991094C2F50E08E
:1003F0009A01220F331F032E000C440B550B0E9451
:1004000091052093B800ECEBF0E08081846080835C
:10041000CF911F910F91089584EA8093BC00809141
:10042000BC008823E4F7089584E98093BC00089514
:100430008093BB0084E88093BC008091BC0088233B
:10044000E4F78091B900887F883131F0883231F04B
:10045000803429F481E0089581E0089581E00895D1
:100460000E94DA0041E060EA76E881E090E00E94D4
:10047000B0010E94530008951BB815B80E943002C5
:1004800061E081E00E94050180E091E00E9411019D
:100490000E940C0280E8809318010E941802809349
:1004A0001A01813099F061E081E00E94050180919C
:1004B0001A014AE06BE171E090E00E94B3058BE124
:1004C00091E00E9411010E9414020FC0813069F472
:1004D00083E40E94180261E081E00E9405018EE041
:1004E00091E00E9411010E9414022FEF81EE94E02E
:1004F000215080409040E1F700C000000E940C02B3
:1005000081E8809318010E94180280931A018130BB
:1005100099F00E94140262E081E00E94050180913E
:100520001A014AE06BE171E090E00E94B3058BE1B3
:1005300091E00E9411013FC08130E9F562E00E9424
:1005400005018EE091E00E941101ECEBF0E080816A
:10055000806880838091BC008823E4F78091BB0091
:10056000809316010E941402809116014AE06BE10B
:1005700071E090E00E94B305809116018A3088F402
:1005800062E084E00E94050181E191E00E94110196
:1005900062E085E00E9405018BE191E00E9411017B
:1005A0000AC08A3040F062E084E00E9405018BE1DD
:1005B00091E00E9411010E940C0280E680931801D4
:1005C0000E94180280932F01813099F061E088E049
:1005D0000E94050180912F014AE06BE171E090E0FB
:1005E0000E94B3058BE191E00E9411010E94140268
:1005F0000FC0813069F480E50E94180261E088E054
:100600000E9405018EE091E00E9411010E941402F7
:100610002FEF81EE94E0215080409040E1F700C040
:1006200000000E940C0281E6809318010E941802CB
:1006300080932F01813099F00E94140262E088E0DB
:100640000E94050180912F014AE06BE171E090E08A
:100650000E94B3058BE191E00E94110119CF813016
:1006600009F016CF62E088E00E9405018EE091E07B
:100670000E941101ECEBF0E0808180688083809122
:10068000BC008823E4F76091BB006093190170E01F
:1006900080E090E00E94980420E030E040EA50E4DE
:1006A0000E94240520E030E04FE753E40E94EE036F
:1006B0006093300170933101809332019093330144
:1006C0000E941402609130017091310180913201D9
:1006D0009091330122E030E04BE151E00E941E0195
:1006E00062E08AE00E9405018BE191E00E94110125
:1006F00062E08EE00E94050183E191E00E94110119
:10070000C7CE5058BB27AA270E9499030C94EA042D
:100710000E94DC0438F00E94E30420F039F49F3F8B
:1007200019F426F40C94D9040EF4E095E7FB0C942C
:10073000D304E92F0E94FB0458F3BA17620773072A
:100740008407950720F079F4A6F50C941D050EF4A6
:10075000E0950B2EBA2FA02D0B01B90190010C01D1
:10076000CA01A0011124FF27591B99F0593F50F4E9
:10077000503E68F11A16F040A22F232F342F442741
:10078000585FF3CF469537952795A795F040539539
:10079000C9F77EF41F16BA0B620B730B840BBAF009
:1007A0009150A1F0FF0FBB1F661F771F881FC2F774
:1007B0000EC0BA0F621F731F841F48F48795779588
:1007C0006795B795F7959E3F08F0B0CF9395880F42
:1007D00008F09927EE0F9795879508950E940204D7
:1007E0000C94EA040E94E30458F00E94DC0440F0F8
:1007F00029F45F3F29F00C94D30451110C941E0589
:100800000C94D9040E94FB0468F39923B1F3552397
:1008100091F3951B550BBB27AA2762177307840713
:1008200038F09F5F5F4F220F331F441FAA1FA9F3A9
:1008300035D00E2E3AF0E0E832D091505040E69597
:10084000001CCAF72BD0FE2F29D0660F771F881FF8
:10085000BB1F261737074807AB07B0E809F0BB0BEB
:10086000802DBF01FF2793585F4F3AF09E3F5105FF
:1008700078F00C94D3040C941E055F3FE4F3983E8B
:10088000D4F3869577956795B795F7959F5FC9F7E8
:10089000880F911D9695879597F90895E1E0660F69
:1008A000771F881FBB1F621773078407BA0720F0E2
:1008B000621B730B840BBA0BEE1F88F7E09508954B
:1008C0000E9467046894B1110C941E0508950E945B
:1008D000030588F09F5798F0B92F9927B751B0F0CA
:1008E000E1F0660F771F881F991F1AF0BA95C9F7B4
:1008F00014C0B13091F00E941D05B1E008950C9430
:100900001D05672F782F8827B85F39F0B93FCCF3E2
:10091000869577956795B395D9F73EF49095809530
:10092000709561957F4F8F4F9F4F0895E89409C050
:1009300097FB3EF490958095709561957F4F8F4F12
:100940009F4F9923A9F0F92F96E9BB279395F69528
:10095000879577956795B795F111F8CFFAF4BB0FA6
:1009600011F460FF1BC06F5F7F4F8F4F9F4F16C00A
:10097000882311F096E911C0772321F09EE8872F94
:10098000762F05C0662371F096E8862F70E060E050
:100990002AF09A95660F771F881FDAF7880F9695C9
:1009A000879597F9089597F99F6780E870E060E070
:1009B00008959FEF80EC089500240A9416161706F8
:1009C00018060906089500240A9412161306140640
:1009D00005060895092E0394000C11F4882352F0A3
:1009E000BB0F40F4BF2B11F460FF04C06F5F7F4F5B
:1009F0008F4F9F4F089557FD9058440F551F59F042
:100A00005F3F71F04795880F97FB991F61F09F3FFB
:100A100079F087950895121613061406551FF2CF24
:100A20004695F1DF08C0161617061806991FF1CF74
:100A300086957105610508940895E894BB2766279B
:100A40007727CB0197F908950E9437050C94EA04A3
:100A50000E94DC0438F00E94E30420F0952311F09A
:100A60000C94D3040C94D90411240C941E050E94F8
:100A7000FB0470F3959FC1F3950F50E0551F629FE3
:100A8000F001729FBB27F00DB11D639FAA27F00DE7
:100A9000B11DAA1F649F6627B00DA11D661F829F0E
:100AA0002227B00DA11D621F739FB00DA11D621FF3
:100AB000839FA00D611D221F749F3327A00D611D10
:100AC000231F849F600D211D822F762F6A2F1124F2
:100AD0009F5750409AF0F1F088234AF0EE0FFF1F25
:100AE000BB1F661F771F881F91505040A9F79E3F7C
:100AF000510580F00C94D3040C941E055F3FE4F381
:100B0000983ED4F3869577956795B795F795E795D1
:100B10009F5FC1F7FE2B880F911D9695879597F9DA
:100B20000895A1E21A2EAA1BBB1BFD010DC0AA1F2E
:100B3000BB1FEE1FFF1FA217B307E407F50720F046
:100B4000A21BB30BE40BF50B661F771F881F991FC1
:100B50001A9469F760957095809590959B01AC010A
:100B6000BD01CF010895BB274A3031F4992322F407
:100B7000BDE2909581959F4F0C94BF05BB27FB016B
:100B80005527AA27880F991FAA1FA41710F0A41B86
:100B900083955051B9F7A05DAA3308F0A95DA193E0
:100BA000009779F7B111B1931192CB010C94D8054C
:100BB000DC01FC01672F71917723E1F7329704C0C4
:100BC0007C916D9370836291AE17BF07C8F308954F
:040BD000F894FFCFC7
:100BD40020202053313A2020202053323A00534918
:060BE40000300056000085
:00000001FF
