S00D00006C61626F342E7372656345
S11300000C9434000C9446000C9446000C94460066
S11300100C9446000C9446000C9446000C94460044
S11300200C9446000C9446000C9446000C94460034
S11300300C9446000C9446000C9446000C94460024
S11300400C9446000C9446000C9446000C94460014
S11300500C9446000C9446000C9446000C94460004
S11300600C94B5000C94460011241FBECFEFD8E0C9
S1130070DEBFCDBF21E0A0E0B1E001C01D92A230FF
S1130080B207E1F70E9474000C94F2000C94000093
S113009097B19A7E97B990E0880F991F8093BA0020
S11300A085E48093BC00089587B18C7F87B988B1BB
S11300B0836088B987B18F7C87B988B1806388B938
S11300C08AB18C638AB98BB1837C8BB9259A0895E4
S11300D08BB1837C8BB9809101019BB18F70880FA8
S11300E0880F892B8BB90895F8940E9454000E94BC
S11300F0680080E40E9448007894309916C02FEF7D
S113010080E792E0215080409040E1F700C0000079
S1130110309BFECF809101018F3028F48091010142
S11301208F5F809301010E946800319916C02FEF00
S113013080E792E0215080409040E1F700C0000049
S1130140319BFECF80910101882329F08091010128
S11301508150809301010E946800809100018334E2
S113016061F61D9A10920001C8CF1F920F920FB62C
S11301700F9211248F93EF93FF938091B900887F9E
S1130180803899F028F4803651F0803741F01DC052
S1130190883A99F0883B89F08039B9F406C0ECEBD1
S11301A0F0E08081856C808315C08091BB008093D2
S11301B0000185EC8093BC000DC080910101809307
S11301C0BB0085EC8093BC0005C0ECEBF0E08081C3
S11301D0856D8083FF91EF918F910F900FBE0F90EB
S10B01E01F901895F894FFCF5D
S9030000FC
