S00E00004C61623641542E737265633C
S11300000C9434000C9451000C9451000C94510045
S11300100C949C000C9451000C9451000C945100CD
S11300200C9451000C9451000C9451000C94510008
S11300300C9451000C9451000C9451000C945100F8
S11300400C9451000C9451000C9420010C94510018
S11300500C9451000C9451000C9451000C945100D8
S11300600C9451000C94510011241FBECFEFD8E022
S1130070DEBFCDBF11E0A0E0B1E0E4EAF2E002C0EF
S113008005900D92A633B107D9F721E0A6E3B1E0BC
S113009001C01D92A334B207E1F70E9498000C94AA
S11300A050010C9400008AB18E7F8AB98AB18260B3
S11300B08AB91092C000E1ECF0E010828081886976
S11300C08083E2ECF0E0108286E0808387E690E0B3
S11300D09093C5008093C40008959091C00095FF4B
S11300E0FCCF8093C6000895AC0120E007C0909136
S11300F0C00095FFFCCF3093C6002F5FFA01E20FDA
S1130100F11D30813111F3CF08950E94530087B15E
S1130110807C87B988B18F6388B9E8E6F0E0808194
S113012082608083ECE6F0E080818F6380830895B1
S11301300E9485007894FFCF1F920F920FB60F9202
S113014011242F933F934F935F936F937F938F93D8
S11301509F93AF93BF93EF93FF9386B18170809386
S1130160390110923A012FEF89EF90E0215080403D
S11301709040E1F700C0000086B1827090E0909357
S11301803C0180933B0126B1247030E030933E0162
S113019020933D0146B1487050E050934201409392
S11301A0410166B1607170E070933801609337016A
S11301B0E6B1E072F0E0F0934001E0933F01A091DA
S11301C03901B0913A01AB2B29F480E091E00E940F
S11301D0740022C0892B29F489E091E00E94740004
S11301E01BC0232B29F482E191E00E94740014C007
S11301F0452B29F48AE191E00E9474000DC0672B1D
S113020029F481E291E00E94740006C0EF2B21F4EE
S11302108CE291E00E9474008BB382608BBBFF91EF
S1130220EF91BF91AF919F918F917F916F915F916A
S11302304F913F912F910F900FBE0F901F901895E3
S11302401F920F920FB60F9211242F933F934F9347
S11302505F936F937F938F939F93AF93BF93EF932A
S1130260FF938091C600809336010E946D008091B7
S113027036018A3021F487E091E00E947400FF91F6
S1130280EF91BF91AF919F918F917F916F915F910A
S11302904F913F912F910F900FBE0F901F90189583
S10702A0F894FFCFFC
S11302A4426F746F6E20410A00426F746F6E204275
S11302B40A004172726962610A004162616A6F0AEA
S11302C400497A717569657264610A0044657265EE
S10902D46368610A0000EA
S9030000FC
