:100000000C943B000C9458000C9458000C9458002D
:100010000C9458000C9458000C9458000C94580000
:100020000C9458000C9458000C9458000C945800F0
:100030000C9458000C9458000C9458000C945800E0
:100040000C9458000C943D020C94A5020C9458009A
:100050000C9458000C9424020C9458000C945800F2
:100060000C9458000C9458005A0161016801720107
:100070007C018601900111241FBECFEFD8E0DEBFC6
:10008000CDBF11E0A0E0B1E0EEE6F5E002C00590E2
:100090000D92A630B107D9F721E0A6E0B1E001C08A
:1000A0001D92AE30B207E1F70E94D7010C94B50261
:1000B0000C940000ECE7F0E0108290819064908353
:1000C00090819F779083EAE7F0E0108290819068BA
:1000D0009083908198609083813031F4ECE7F0E078
:1000E00080818062808305C0ECE7F0E080818F7DB5
:1000F0008083403141F140F4443099F04830D1F0F0
:10010000423009F041C007C0403479F14038B1F1C4
:100110004032D1F521C0EAE7F0E08081887F80831A
:1001200038C0EAE7F0E080818260808380818A7F46
:1001300080832FC0EAE7F0E0808183608083808144
:100140008B7F808326C0EAE7F0E080818460808333
:1001500080818C7F80831DC0EAE7F0E0808185602C
:10016000808380818D7F808314C0EAE7F0E0808106
:100170008660808380818E7F80830BC0EAE7F0E019
:1001800080818760808305C0EAE7F0E08081887F16
:1001900080836630B8F56230C1F028F4662349F0F8
:1001A000613069F02AC06430E1F0A8F06530F9F000
:1001B00024C0EEE7F0E08081816080830895EEE75F
:1001C000F0E08081826080830895EEE7F0E0808136
:1001D000846080830895EEE7F0E08081886080830A
:1001E0000895EEE7F0E08081806180830895EEE776
:1001F000F0E08081806280830895EEE7F0E0808106
:100200008E7F80830895ECE7F0E09081907F892BCA
:100210008083EAE7F0E080818064808380917A00C7
:1002200086FDFCCF809178009091790008958AB185
:100230008E7F8AB98AB182608AB91092C000E1ECDF
:10024000F0E01082808188698083E2ECF0E0108227
:1002500086E0808387E690E09093C5008093C40099
:100260000895AC0120E007C09091C00095FFFCCF3D
:100270003093C6002F5FFA01E20FF11D308131117A
:10028000F3CF0895E82F84FF52C084B18C6284B903
:1002900084B18F7E84B98CB580618CBDE7708E2F60
:1002A00090E08730910508F04BC0FC01EC5CFF4FFB
:1002B0000C94AF028CB58C7F8CBD8DB581608DBDEB
:1002C0003FC08CB58C7F8CBD8DB58E7F8DBD38C009
:1002D0008CB581608CBD8CB58D7F8CBD8DB58160FA
:1002E0008DBD2EC08CB581608CBD8CB58D7F8CBDD5
:1002F0008DB58E7F8DBD24C08CB58E7F8CBD8CB5A9
:1003000082608CBD8DB581608DBD1AC08CB58E7F2D
:100310008CBD8CB582608CBD8DB58E7F8DBD10C0BF
:100320008CB583608CBD8DB58E7F8DBD09C084B1C9
:10033000806184B984B1837D84B98CB58F7E8CBD96
:100340008CB5462B242B282B20642CBD08958EBD04
:10035000089540E867E081E00E945A002FEF81EEA7
:1003600094E0215080409040E1F700C0000040E858
:1003700065E081E00E945A002FEF81EE94E0215069
:1003800080409040E1F700C000000E9417018AB150
:100390008C6F8AB984B1836084B920E040E060E06A
:1003A00080E40E9442018CB580688CBD08950E9453
:1003B000A9017894FFCF882324F495B1926095B970
:1003C00003C095B19D7F95B986FF04C095B191603A
:1003D00095B903C095B19E7F95B985FF04C09BB1C7
:1003E00090689BB903C09BB19F779BB984FF04C001
:1003F0009BB190649BB903C09BB19F7B9BB983FF6A
:1004000004C09BB190629BB903C09BB19F7D9BB917
:1004100082FF04C09BB190619BB903C09BB19F7EDA
:100420009BB981FF04C09BB198609BB903C09BB18D
:10043000977F9BB980FF04C08BB184608BB908950E
:100440008BB18B7F8BB908951F920F920FB60F92CD
:1004500011248F93EF93FF938091790080930D0186
:10046000EAE7F0E0808180618083FF91EF918F91D6
:100470000F900FBE0F901F9018951F920F920FB6FE
:100480000F9211242F933F934F935F936F937F931A
:100490008F939F93AF93BF93EF93FF938BB1846040
:1004A0008BB98EB580930A018BB18B7F8BB980910C
:1004B0000A018093070180910601813089F480E070
:1004C00091E00E94310187E091E00E943101109299
:1004D000060180910A010E94DB0180910B018EBD13
:1004E00080910A01803559F485E090E00E94030173
:1004F00080910D0180930C010E94A70115C08334E7
:1005000059F487E090E00E94030180910D018093EF
:100510000B010E94A70108C08C3431F481E0809364
:10052000060180910C018EBDFF91EF91BF91AF91BB
:100530009F918F917F916F915F914F913F912F91FB
:100540000F900FBE0F901F9018951F920F920FB62D
:100550000F9211240F900FBE0F901F901895EE0F61
:0E056000FF1F0590F491E02D0994F894FFCF51
:06056E004C45440A0000A8
:00000001FF
